:060000000A128A110C280F
:10000800FE00030EF2000A08F3000A128A11CE2835
:100018000A128A110F2883120313B901BA01BB010E
:10002800BC0183010A128A1119280A128A111021A7
:100038000A128A110A128A11E9210A128A118312F4
:1000480003139F140C1F29282A282628F930831205
:100058000313B4002F28B40B2E283228831203135D
:100068003C08A9003B08A8000030AA00AB00FF30FC
:10007800AC000030AD001E30AE000030AF004130A3
:10008800B0000030B1000A128A114D210A128A11FB
:10009800831203132908B6002808B5003A08A900F6
:1000A8003908A8000030AA00AB00FF30AC000030CF
:1000B800AD001E30AE000030AF004130B00000305F
:1000C800B1000A128A114D210A128A1183120313F0
:1000D8002908B8002808B7003608F5003508F400E4
:1000E8000A128A11CA210A128A11831203133808C4
:1000F800F5003708F4000A128A11AB210A128A1196
:1001080023280A128A110C2883120313A501A601B9
:1001180020082104031991289228C928A701A70AB1
:10012800A02801300310A00DA10DFF3E031D962845
:100138000130A4002408A707A11FA328A4289528F4
:1001480001300310A50DA60DFF3E031DA5282108AB
:100158002302031DB12820082202031CB428B52855
:10016800BC282008A2022108031CA303A30225140B
:1001780001300310A10CA00CFF3E031DBD28013067
:10018800A702031DC828C928A4282608A1002508F5
:10019800A00008000B1DD128D228DB280130F00070
:1001A80070088312031386073D3081000B118312F8
:1001B80003130C1FE028E12809291F0CF000700C1C
:1001C8000F39003A031DE928EA28F6281E08F0002E
:1001D800F1017008BB007108BC001F08C33904385E
:1001E8009F0008291F0CF000700C0F39013A031DFD
:1001F800FE28FF2808291E08F000F1017008B90040
:100208007108BA00C3309F050C1373088A00720E78
:100218008300FE0E7E0E090083160317890107303E
:10022800880007308316031385008601870188013B
:10023800831203138501860187018801831603133E
:100248000F088F3930388F000F1481128111073051
:1002580081043D308312031381000B118B160C139C
:10026800831603130C178B17831203131F083F39C8
:1002780080389F00C3309F054129422943298316AE
:1002880003139F131F129F12831203131F140C13BF
:100298000800831203132A082C02A0002B08031C51
:1002A8002B0A2D02A1002A082802F4002B08031C9F
:1002B8002B0A2902F5002E083002F6002F08031C2D
:1002C8002F0A3102F7000A128A1186210A128A11AE
:1002D800750883120313A3007408A2000A128A1176
:1002E80088200A128A11831203132E082007B200ED
:1002F8002F0803182F0A2107B3003308A900320872
:10030800A8000800F801F901741C8B298C2992298E
:100318007608F8070318F90A7708F9070130031077
:10032800F60DF70DFF3E031D932901300310F50C60
:10033800F40CFF3E031D9A2974087504031DA529B2
:10034800A62988297908F5007808F40008007508B6
:10035800F7007408F6000310F70CF60C0310F70CFE
:10036800F60C76088312031395001708CF39970007
:100378007408F60003300310F60DFF3E031DBF2975
:100388000310760D30391704970008007508F70038
:100398007408F6000310F70CF60C0310F70CF60CB3
:1003A8007608831203139B001D08CF399D0074083B
:1003B800F60003300310F60DFF3E031DDE2903107F
:1003C800760D30391D049D0008000630831603138E
:1003D80087009B3092000C308312031397000C3077
:1003E8009D0095019B018C10073092008C1CFD2903
:0E03F800FE29FA298C108316031387010800D2
:08400000FF3FFF3FFF3FFF3FC0
:04400E00D420FF3F7C
:00000001FF
