:060000000A128A110C280F
:10000800FE00030EF2000A08F3000A128A11662F96
:100018000A128A110F28F601F701F801F901831273
:100028000313ED0183160313A001A101A201A3018B
:10003800A401A501A601A70183010A128A113C2D7A
:100048008312031344088039CE004408C9004907C5
:10005800D400C31F302831283228541454080319F7
:10006800362837284628540A031D3B283C284428AC
:100078000030C4000030C3000030C2000030C100AE
:10008800C3174E280030C4000030C3000030C2003F
:100098000030C10048088039C9004908CE06480820
:1000A800C9004907CF00C71F5A285B285C284F148E
:1000B8004F0803196028612870284F0A031D652816
:1000C80066286E280030C8000030C7000030C6001F
:1000D8000030C500C71778280030C8000030C700B6
:1000E8000030C6000030C5004F0803197C287D2861
:1000F80082285408031D812882288B280030C400D8
:100108000030C3000030C2000030C100682B410835
:10011800F40047080A128A150F270A128A1175086F
:1001280083120313DA007408D9005908C900CA01F8
:10013800CB01CC014C08D3004B08D2004A08D100AF
:100148004908D0005A08C900CA01CB01CC014C08A3
:10015800D8004B08D7004A08D6004908D5004208FD
:10016800F40046080A128A150F270A128A11750820
:1001780083120313DA007408D9005908C900CA01A8
:10018800CB01CC014908D0074A0803110318013EE6
:100198000319CF28D1074B0803110318013E03198F
:1001A800D628D2074C0803110318013E0319DD288D
:1001B800D3075A08C900CA01CB01CC014908D507A1
:1001C8004A0803110318013E0319EB28D6074B0808
:1001D80003110318013E0319F228D7074C0803112D
:1001E8000318013E0319F928D8074308F400450805
:1001F8000A128A150F270A128A1175088312031327
:10020800DA007408D9005908C900CA01CB01CC0129
:100218004908D0074A0803110318013E0319152994
:10022800D1074B0803110318013E03191C29D207F3
:100238004C0803110318013E03192329D3075A0850
:10024800C900CA01CB01CC014908D5074A080311E6
:100258000318013E03193129D6074B080311031867
:10026800013E03193829D7074C0803110318013E2A
:1002780003193F29D8070830C9000310D00DD10D44
:10028800D20DD30DC90B41294208F40045080A12C2
:100298008A150F270A128A11750883120313DA00C8
:1002A8007408D9005908C9005A08CA00CB01CC0102
:1002B8004908D0074A0803110318013E03196529A4
:1002C800D1074B0803110318013E03196C29D20703
:1002D8004C0803110318013E03197329D307410879
:1002E800F40046080A128A150F270A128A1175089F
:1002F80083120313DA007408D9005908C9005A0890
:10030800CA00CB01CC014908D0074A0803110318D9
:10031800013E03199029D1074B0803110318013E28
:1003280003199729D2074C0803110318013E031932
:100338009E29D3070830C9000310D00DD10DD20D66
:10034800D30DC90BA0294108F40045080A128A15E3
:100358000F270A128A11750883120313DA0074082A
:10036800D9005908C9005A08CA00CB01CC0149086C
:10037800D0074A0803110318013E0319C429D107FD
:100388004B0803110318013E0319CB29D2074C0867
:1003980003110318013E0319D229D3074208F400B8
:1003A80047080A128A150F270A128A11750883123C
:1003B8000313DA007408D9005908C9005A08CA009A
:1003C800CB01CC014908D5074A0803110318013E9F
:1003D8000319EF29D6074B0803110318013E031927
:1003E800F629D7074C0803110318013E0319FD2904
:1003F800D8074308F40046080A128A150F270A127C
:100408008A11750883120313DA007408D900590891
:10041800C9005A08CA00CB01CC014908D5074A08C7
:1004280003110318013E03191A2AD6074B080311B2
:100438000318013E0319212AD7074C080311031892
:10044800013E0319282AD8074308F40047080A126E
:100458008A150F270A128A11750883120313DA0006
:100468007408D9005908C9005A08CA00CB01CC0140
:1004780008300310C90DCA0DCB0DCC0DFF3E031D6E
:100488003D2A4908D5074A0803110318013E0319F4
:100498004E2AD6074B0803110318013E0319552AA3
:1004A800D7074C0803110318013E03195C2AD80723
:1004B8005008C9005108CA005208CB005308CC00A4
:1004C80018300310CC0CCB0CCA0CC90CFF3E031D12
:1004D800652A4908D5074A0803110318013E03197C
:1004E800762AD6074B0803110318013E03197D2A03
:1004F800D7074C0803110318013E0319842AD807AB
:100508000830C9000310D00DD10DD20DD30DC90B81
:10051800862A54084F07C900CA01CA0D4908823EF5
:10052800D9004A080318013EFF3EDA00B82A013014
:10053800C9000310D50DD60DD70DD80DC90B9D2AAE
:10054800D31FA72AA82AA92A55140130C9000310C5
:10055800D00DD10DD20DD30DC90BAB2AFF30D90761
:100568000318DA0AFF30DA07D71FBB2ABC2A9B2AEE
:10057800CF01D31FC02AC12ADD2AFF305005C90088
:10058800FF305105CA00FF305205CB007F305305BC
:10059800CC004C084B044A0449040319D42AD52A30
:1005A800D82ACF01CF0ADD2A551CDB2ADC2ADD2A0E
:1005B800D52A4F080319E12AE22A132B0130D5075F
:1005C800003003180130D607003003180130D70770
:1005D800003003180130D807581CF32AF42A132BCB
:1005E8005508C9005608CA005708CB005808CC005F
:1005F8000130CD004C0DCC0CCB0CCA0CC90CCD0B6A
:10060800FE2A4C08D8004B08D7004A08D6004908EB
:10061800D5000130D9070318DA0A0030DA075A087A
:10062800803AFF0080307F02031D1C2BFF305902E7
:10063800031C1F2B202B2B2B7F3083120313D80076
:100648008030D7000030D6000030D5005C2B8312F4
:1006580003135A08803AFF0080307F02031D362BAF
:10066800013059020318392B3A2B462B00308312DC
:100678000313D8000030D7000030D6000030D50072
:10068800CE015C2B831203135908D400FF30D50523
:10069800FF30D6057F30D7050030D805541C552BC0
:1006A800562B572BD7175408C9000310490CD800EC
:1006B8004E08C9004908D8045808C4005708C300A0
:1006C8005608C2005508C1000800831203132E08FB
:1006D8008039B8002E08AF002F07BF00AD1F752B5B
:1006E800762B772B3F143F0803197B2B7C2B8C2B05
:1006F8003F0A031D802B812B892B0030AE00003070
:10070800AD000030AC000030AB00AD17AE01942B4B
:100718000030AE000030AD000030AC000030AB005F
:100728002A088039AF002F08B8062A08AF002F071B
:10073800C000A91FA02BA12BA22B4014400803190D
:10074800A62BA72BB72B400A031DAB2BAC2BB42B26
:100758000030AA000030A9000030A8000030A7002F
:10076800A917AA01BF2B0030AA000030A900003049
:10077800A8000030A7002A08290428042704031D1C
:10078800C62BC72BE02B0030AE000030AD00003088
:10079800AC000030AB008030AD047F30AE043808C8
:1007A800AF002F08AE042E08AA002D08A9002C08B7
:1007B800A8002B08A7003B2D3F08031DE42BE52BC1
:1007C800EE2B0030AA000030A9000030A80000304D
:1007D800A7003B2D3F08AF00B0013008B200400829
:1007E8002F02B100031CB20331087F3EB900320862
:1007F8000318013E003EBA002E08B7002D08B600C7
:100808002C08B5002B08B4000030AE000030AD0055
:100818000030AC000030AB000030BE000030BD003E
:100828000030BC000030BB00C001642C4008031934
:100838001E2C1F2C3F2C0130AF000310B40DB50D3A
:10084800B60DB70DAF0B212C0130AF000310AB0D67
:10085800AC0DAD0DAE0DAF0B2A2CBE1F342C352CB4
:10086800362C2B140130AF000310BB0DBC0DBD0D91
:10087800BE0DAF0B382C2A083702031D4D2C290852
:100888003602031D4D2C28083502031D4D2C270860
:100898003402031C502C512C602C3E172708B4023C
:1008A8002808031C280FB5022908031C290FB602C3
:1008B8002A08031C2A0FB7020130AF002F08C0070F
:1008C8001A304002031C692C6A2C1A2C370836048B
:1008D800350434040319712C722C912C3B14912C7F
:1008E8000130AF000310AB0DAC0DAD0DAE0DAF0B6D
:1008F800762CBE1F802C812C822C2B140130AF004B
:100908000310BB0DBC0DBD0DBE0DAF0B842CFF300D
:10091800B9070318BA0AFF30BA07AD1F942C952CF3
:10092800742CC001BE1F992C9A2CB62CFF303B05A5
:10093800AF00FF303C05B000FF303D05B1007F300F
:100948003E05B2003208310430042F040319AD2CDF
:10095800AE2CB12CC001C00AB62C2B1CB42CB52C63
:10096800B62CAE2C40080319BA2CBB2CEC2C013049
:10097800AB07003003180130AC0700300318013012
:10098800AD07003003180130AE072E1CCC2CCD2C3F
:10099800EC2C2B08AF002C08B0002D08B1002E0855
:1009A800B2000130B300320DB20CB10CB00CAF0C78
:1009B800B30BD72C3208AE003108AD003008AC00BC
:1009C8002F08AB000130B9070318BA0A0030BA077C
:1009D8003A08803AFF0080307F02031DF52CFF3073
:1009E8003902031CF82CF92C072DFF30831203134E
:1009F800B9000030BA000030AE000030AD00003061
:100A0800AC000030AB00831203133A08803AFF00B1
:100A180080307F02031D122D013039020318152D75
:100A2800162D232D83120313B901BA010030AE002D
:100A38000030AD000030AC000030AB00B8018312CC
:100A480003133908BF003F1C2A2D2B2D2D2DAD1760
:100A5800312D7F30AF002F08AD053F08AF000310E0
:100A68002F0CAE003808AF002F08AE04D72B0800B3
:100A78000A128A11C1270A128A110130831203133C
:100A8800E5000030E6004130EA00A030E90000301F
:100A9800E8000030E7000A128A1134260A128A1187
:100AA800023083120313E5000030E6004130EA000B
:100AB800A030E9000030E8000030E7000A128A118F
:100AC80034260A128A11831203139F140C1F6D2DEA
:100AD8006E2D6A2D790883120313AD007808AC00D7
:100AE8000030AE00AF00FF30B0000030B1001E3063
:100AF800B2000030B3004130B4000030B5000A1233
:100B08008A1538270A128A11831203132D088316AF
:100B18000313A500831203132C0883160313A400E0
:100B2800770883120313AD007608AC000030AE00DE
:100B3800AF00FF30B0000030B1001E30B20000300E
:100B4800B3004130B4000030B5000A128A153827C6
:100B58000A128A11831203132D0883160313A300A4
:100B6800831203132C0883160313A2002708831289
:100B78000313AD0083160313260883120313AC0076
:100B88000430AE000030AF00FF30B0000030B100DC
:100B98000030B200B300FF30B4000030B5000A12D4
:100BA8008A1538270A128A11831203132D0883160F
:100BB8000313A100831203132C0883160313A00048
:100BC800023083120313A0000030A1008316031320
:100BD800250883120313A300831603132408831222
:100BE8000313A2000A128A15B7270A128A110130C4
:100BF80083120313A0000030A100831603132308F7
:100C080083120313A300831603132208831203130A
:100C1800A2000A128A15B7270A128A11831203132F
:100C28006D08EB00EC016B08A0006C08A1008316AE
:100C38000313210883120313A30083160313200848
:100C480083120313A2000130A4000030A5000A1289
:100C58008A15CF260A128A11672D0A128A110C28C2
:100C6800831203136A08AE006908AD006808AC0077
:100C78006708AB004430AA007A30A9000030A80009
:100C88000030A7000A128A1169230A128A118312F6
:100C980003132A08C8002908C7002808C60027081F
:100CA800C5004830C400F430C3002430C20000300E
:100CB800C1000A128A1124200A128A11831203130E
:100CC800440883160313AB008312031343088316E7
:100CD8000313AA0083120313420883160313A900FF
:100CE80083120313410883160313A8002B088312E9
:100CF8000313AE00831603132A0883120313AD00EF
:100D080083160313290883120313AC0083160313F5
:100D1800280883120313AB004230AA008030A900D0
:100D28000030A8000030A7000A128A1169230A12AD
:100D38008A11831203132A08DE002908DD00280817
:100D4800DC002708DB000A128A11EE260A128A1133
:100D5800831203135B08FF3E83160313AC00831250
:100D680003135C080318013EFF3E83160313AD000E
:100D78008312031365036604031DC32EC42ED02EED
:100D880004308316031387002C0892000C3083125A
:100D9800031397009501E22E023065066604031DD1
:100DA800D62ED72EE22E02308316031387002C0886
:100DB80092000C30831203139D009B018C100730A6
:100DC80092008C1CE82EE92EE52E8C108316031356
:100DD800870108000310831203135D0D5E0DE40004
:100DE8006408031DF82EF92E022F0030DE000030B3
:100DF800DD000030DC000030DB00652F5B08DF0021
:100E08005C08E0005D08E1005E08E2001F300310A6
:100E1800E20CE10CE00CDF0CFF3E031D0B2F5F081A
:100E2800E300DD17FF30DB05FF30DC05FF30DD05B3
:100E38000030DE059630E402E41F232F242F3E2FD6
:100E48006408803A973E03182A2F2B2F2C2FF92E4F
:100E580001300310DE0CDD0CDC0CDB0CFF3E031D47
:100E68002D2F0130DF005F08E407031D3C2F3D2FC5
:100E78002C2F552F20306402031C432F442F502F52
:100E8800F92E0130DF000310DB0DDC0DDD0DDE0D6A
:100E9800DF0B472F0130E4026408031D542F552F40
:100EA800452F63080319592F5A2F652FDB09DC09D1
:100EB800DD09DE09DB0A0319DC0A0319DD0A031957
:100EC800DE0A08000B1D692F6A2F732F0130F0000E
:100ED800700883120313ED07323081000B1183125F
:100EE80003130C1F782F792FBA2F1F0CF000700CEA
:100EF8000F39003A031D812F822F8E2F1E08F00014
:100F0800F1017008F8007108F9001F08C3390438A6
:100F18009F00B92F1F0CF000700C0F39013A031D08
:100F2800962F972FA32F1E08F000F1017008F600E6
:100F38007108F7001F08C33908389F00B92F1F0C24
:100F4800F000700C0F39023A031DAB2FAC2FB92FEC
:100F58001E08F000F101700883160313A60071083B
:100F6800A700C330831203139F050C1373088A006C
:100F7800720E8300FE0E7E0E090083160317890188
:100F88000730880007308316031385008601870120
:100F9800880183120313850186018701880183165E
:100FA80003130F088F3930388F000F148112811105
:100FB8000108F839033881003230831203138100A5
:100FC8000B118B160C13831603130C178B17831234
:100FD80003131F083F3980389F00C3309F05F42F43
:100FE800F52FF62F831603139F131F129F128312D8
:080FF80003131F140C13080081
:101D9E00831203132108803AF4002308803A740258
:101DAE00031DDB2E220820020318DE2EDF2EE42E6A
:101DBE008312031324088800E72E8312031388016D
:101DCE000800F401F50183120313201CEF2EF02EF0
:101DDE00F62E2208F4070318F50A2308F50701303A
:101DEE000310A20DA30DFF3E031DF72E01300310AD
:101DFE00A10CA00CFF3E031DFE2E20082104031D86
:101E0E00092F0A2FEA2E7508A1007408A0000800F9
:101E1E0083120313A600A201A3017408A000A1015E
:101E2E002008A4002108A500261C1E2F1F2F252FD9
:101E3E002408A2070318A30A2508A30701300310DC
:101E4E00A40DA50DFF3E031D262F0310A60C26087C
:101E5E00031D322F332F1B2F2308F5002208F40009
:101E6E000800831203132E083002A4002F08031C4F
:101E7E002F0A3102A5002E082C02A0002F08031CE9
:101E8E002F0A2D02A10032083402A2003308031CCF
:101E9E00330A3502A3000A128A15E8260A128A1599
:101EAE00831203132108A7002008A6000A128A1520
:101EBE0071270A128A158312031332082407B600FB
:101ECE0033080318330A2507B7003708AD00360864
:101EDE00AC00080083120313A901AA0124082504EB
:101EEE0003197A2F7B2FB22FAB01AB0A892F01304A
:101EFE000310A40DA50DFF3E031D7F2F0130A8007A
:101F0E002808AB07A51F8C2F8D2F7E2F01300310B5
:101F1E00A90DAA0DFF3E031D8E2F25082702031DB6
:101F2E009A2F24082602031C9D2F9E2FA52F2408CE
:101F3E00A6022508031CA703A702291401300310CB
:101F4E00A50CA40CFF3E031DA62F0130AB02031DF2
:101F5E00B12FB22F8D2F2A08A5002908A400080042
:101F6E008312031320032104031DBE2FBF2FDC2F6A
:101F7E002308F5002208F400750DF50CF40C750D10
:101F8E00F50CF40C740895001708CF399700220849
:101F9E00F40003300310F40DFF3E031DD12F031088
:101FAE00740D303917049700FF2F023020062104DC
:101FBE00031DE22FE32FFF2F2308F5002208F40064
:101FCE00750DF50CF40C750DF50CF40C74089B00E6
:101FDE001D08CF399D002208F40003300310F40DC4
:101FEE00FF3E031DF52F0310740D30391D049D00A7
:021FFE000800D9
:08400000FF3FFF3FFF3FFF3FC0
:04400E00D420FF3F7C
:00000001FF
